{"contractName":"TenderApi","abi":[{"constant":true,"inputs":[],"name":"owner","outputs":[{"name":"","type":"address"}],"payable":false,"stateMutability":"view","type":"function"},{"constant":true,"inputs":[],"name":"current","outputs":[{"name":"","type":"address"}],"payable":false,"stateMutability":"view","type":"function"},{"inputs":[],"payable":false,"stateMutability":"nonpayable","type":"constructor"},{"constant":false,"inputs":[{"name":"newAddress","type":"address"}],"name":"setCurrentAddress","outputs":[],"payable":false,"stateMutability":"nonpayable","type":"function"},{"constant":false,"inputs":[],"name":"incrementValue","outputs":[{"name":"","type":"uint8"}],"payable":false,"stateMutability":"nonpayable","type":"function"}],"bytecode":"0x608060405234801561001057600080fd5b5033600160006101000a81548173ffffffffffffffffffffffffffffffffffffffff021916908373ffffffffffffffffffffffffffffffffffffffff160217905550610366806100616000396000f300608060405260043610610062576000357c0100000000000000000000000000000000000000000000000000000000900463ffffffff1680633bfd7fd31461006757806377350f88146100985780638da5cb5b146100db5780639fa6a6e314610132575b600080fd5b34801561007357600080fd5b5061007c610189565b604051808260ff1660ff16815260200191505060405180910390f35b3480156100a457600080fd5b506100d9600480360381019080803573ffffffffffffffffffffffffffffffffffffffff169060200190929190505050610250565b005b3480156100e757600080fd5b506100f06102ef565b604051808273ffffffffffffffffffffffffffffffffffffffff1673ffffffffffffffffffffffffffffffffffffffff16815260200191505060405180910390f35b34801561013e57600080fd5b50610147610315565b604051808273ffffffffffffffffffffffffffffffffffffffff1673ffffffffffffffffffffffffffffffffffffffff16815260200191505060405180910390f35b60008060009054906101000a900473ffffffffffffffffffffffffffffffffffffffff1673ffffffffffffffffffffffffffffffffffffffff16633bfd7fd36040518163ffffffff167c0100000000000000000000000000000000000000000000000000000000028152600401602060405180830381600087803b15801561021057600080fd5b505af1158015610224573d6000803e3d6000fd5b505050506040513d602081101561023a57600080fd5b8101908080519060200190929190505050905090565b600160009054906101000a900473ffffffffffffffffffffffffffffffffffffffff1673ffffffffffffffffffffffffffffffffffffffff163373ffffffffffffffffffffffffffffffffffffffff161415156102ac57600080fd5b806000806101000a81548173ffffffffffffffffffffffffffffffffffffffff021916908373ffffffffffffffffffffffffffffffffffffffff16021790555050565b600160009054906101000a900473ffffffffffffffffffffffffffffffffffffffff1681565b6000809054906101000a900473ffffffffffffffffffffffffffffffffffffffff16815600a165627a7a72305820c7e863d976355eaf711d6ce152b2fffe7c1119bee9461571dcf4b00947ede0010029","source":"pragma solidity ^0.4.24;\r\n\r\nimport \"./TenderInterface.sol\";\r\n\r\n//Version 0.01\r\n//This is the main contract that expose functionality to the public and handles versioning\r\n//This is meant to be set in stone as much as possible after completion\r\ncontract TenderApi is TenderInterface {\r\n\tTenderInterface public current; //the current contract implementation\r\n\taddress public owner; //the creator of the smart contract\r\n\r\n\t//Initializes the smart contract\r\n\tconstructor() public {\r\n\t\towner = msg.sender;\r\n\t}\r\n\r\n\t//Specifies the address of the current (latest) smart contract implementation\r\n\tfunction setCurrentAddress(address newAddress) public {\r\n\t\trequire(msg.sender == owner); //function can only be called by the creator of the smart contract\r\n\t\tcurrent = TenderInterface(newAddress); //cast contract to TenderInterface\r\n\t}\r\n\r\n\t//======================================================\r\n\t//== PUBLIC API FUNCTIONALITY IS TO BE INSERTED BELOW ==\r\n\t//======================================================\r\n\r\n\tfunction incrementValue() external returns (uint8) {\r\n\t\treturn current.incrementValue();\r\n\t}\r\n}","sourcePath":"C:\\Users\\cilid031\\Documents\\from_git\\tender\\contracts\\TenderApi.sol","compiler":{"name":"solc","version":"0.4.24+commit.e67f0147.Emscripten.clang"},"schemaVersion":"2.0.1","updatedAt":"2018-12-12T10:00:35.526Z"}