{"contractName":"Tender","abi":[{"constant":true,"inputs":[],"name":"value","outputs":[{"name":"","type":"uint8"}],"payable":false,"stateMutability":"view","type":"function"},{"constant":true,"inputs":[],"name":"owner","outputs":[{"name":"","type":"address"}],"payable":false,"stateMutability":"view","type":"function"},{"inputs":[{"name":"apiAddress","type":"address"},{"name":"initialValue","type":"uint8"}],"payable":false,"stateMutability":"nonpayable","type":"constructor"},{"constant":false,"inputs":[],"name":"incrementValue","outputs":[{"name":"","type":"uint8"}],"payable":false,"stateMutability":"nonpayable","type":"function"}],"bytecode":"0x608060405234801561001057600080fd5b506040516040806102b08339810180604052810190808051906020019092919080519060200190929190505050816000806101000a81548173ffffffffffffffffffffffffffffffffffffffff021916908373ffffffffffffffffffffffffffffffffffffffff16021790555080600060146101000a81548160ff021916908360ff1602179055505050610207806100a96000396000f300608060405260043610610057576000357c0100000000000000000000000000000000000000000000000000000000900463ffffffff1680633bfd7fd31461005c5780633fa4f2451461008d5780638da5cb5b146100be575b600080fd5b34801561006857600080fd5b50610071610115565b604051808260ff1660ff16815260200191505060405180910390f35b34801561009957600080fd5b506100a26101a3565b604051808260ff1660ff16815260200191505060405180910390f35b3480156100ca57600080fd5b506100d36101b6565b604051808273ffffffffffffffffffffffffffffffffffffffff1673ffffffffffffffffffffffffffffffffffffffff16815260200191505060405180910390f35b60008060009054906101000a900473ffffffffffffffffffffffffffffffffffffffff1673ffffffffffffffffffffffffffffffffffffffff163373ffffffffffffffffffffffffffffffffffffffff1614151561017257600080fd5b6000601481819054906101000a900460ff1660010191906101000a81548160ff021916908360ff1602179055905090565b600060149054906101000a900460ff1681565b6000809054906101000a900473ffffffffffffffffffffffffffffffffffffffff16815600a165627a7a72305820bdfcaec799fb0f2d3f615e5ef5d57873f70fc1e8b7f3e40ebfb279a68f1fcbad0029","source":"pragma solidity ^0.4.24;\r\n\r\nimport \"./TenderInterface.sol\";\r\n\r\n//Version 0.01\r\n//This is the contract functionality implementation\r\n//This contract is upgradeable as long as it keeps the same TenderInterface implementation\r\ncontract Tender is TenderInterface {\r\n\taddress public owner; //the TenderApi smart contract instance\r\n\tuint8 public value;\r\n\r\n\t//Initializes the smart contract\r\n\tconstructor(address apiAddress, uint8 initialValue) public {\r\n\t\towner = apiAddress;\r\n\t\tvalue = initialValue;\r\n\t}\r\n\r\n\t//Makes sure that the function can only be called by TenderApi instance\r\n\tmodifier restricted() {\r\n\t\trequire(msg.sender == owner);\r\n\t\t_;\r\n\t}\r\n\r\n\t//=======================================================\r\n\t//== FUNCTION IMPLEMENTATIONS ARE TO BE INSERTED BELOW ==\r\n\t//==    ALL FUNCTIONS MUST BE MARKED AS RESTRICTED!    ==\r\n\t//=======================================================\r\n\r\n\tfunction incrementValue() public restricted returns (uint8) {\r\n\t\treturn ++value;\r\n\t}\r\n}","sourcePath":"C:\\Users\\cilid031\\Documents\\from_git\\tender\\contracts\\Tender.sol","compiler":{"name":"solc","version":"0.4.24+commit.e67f0147.Emscripten.clang"},"schemaVersion":"2.0.1","updatedAt":"2018-12-12T10:00:35.521Z"}